:040000008A11112828
:10000800FE00030EF1000408F2000A08F300831250
:1000180003137F08F4008A111F288A111328F50199
:10002800F6018A11B1208A11F7008A11B220F8006E
:1000380083018A1175280130F5070318F60A003084
:10004800F6070B11063081007608803AF000250883
:10005800803A7002031D322824087502031C4A28BE
:10006800770883120313870001300310F70DF80D8A
:10007800FF3E031D3928103077067804031D4828F1
:100088000130F7000030F800F501F601740883121A
:100098000313FF0073088A0072088400710E83003E
:1000A800FE0E7E0E0900FF308316031385008312AF
:1000B80003179E019F018316031305148312031768
:1000C8001E14831203139F171F13831603131F088D
:1000D8008F3910389F00C330831203139F051F14F4
:1000E80008008A1157208A118A11A1208A118312C7
:1000F80003138701F0308316031387008A118C20BD
:100108008A11831203132108A5002008A40082285D
:100118008D288E280000831203139F149F1892289D
:100128001E08A300831603131E0883120313A200DC
:100138002308A1002208A0000800831603138111D8
:100148000108F8390138810081120B110630831239
:0E015800031381008B168B170800013400344E
:02400E00F4F0CC
:00000001FF
